:100000000C942A000C9434000C9434000C943400AA
:100010000C9434000C9434000C9434000C94340090
:100020000C9434000C9434000C9434000C94340080
:100030000C9434000C9434000C9434000C94340070
:100040000C9434000C9434000C9434000C94340060
:100050000C94340011241FBECFE5D8E0DEBFCDBF25
:100060000E9439000C944E000C9400008FE081BD7A
:1000700008950E94360084B3806884BB85B380688D
:1000800085BB2FEF89E698E1215080409040E1F751
:1000900000C0000085B38F7785BBFFCFF894FFCFFA
:00000001FF
