:100000000C942A000C943F000C943F000C943F0089
:100010000C943F000C943F000C943F000C943F0064
:100020000C943F000C943F000C943F000C943F0054
:100030000C943F000C943F000C943F000C943F0044
:100040000C943F000C943F000C943F000C943F0034
:100050000C943F0011241FBECFE5D8E0DEBFCDBF1A
:1000600010E0A0E6B0E0E0EFF0E002C005900D92F5
:10007000AA36B107D9F70E9441000C9476000C947F
:100080000000A79A0E94500080E690E00E94600065
:100090000E945C008133E1F785B3805885BBF8CFBF
:1000A00088E18AB986E880BD87E689B910BC0895E1
:1000B0005D9BFECF8CB908955F9BFECF8CB10895F8
:1000C0000F931F93CF93FC018081882359F08F01F8
:1000D000C0E00E945800CF5FF801EC0FF11D808155
:1000E0008111F7CFCF911F910F910895F894FFCF11
:0A00F000456E672E54616861000040
:00000001FF
