S01100005350495F536C6176652E73726563CD
S11300000C942A000C9434000C9434000C943400A6
S11300100C9434000C9434000C9434000C9434008C
S11300200C9434000C9434000C9434000C9434007C
S11300300C9434000C9434000C9434000C9434006C
S11300400C9434000C9434000C9434000C9434005C
S11300500C94340011241FBECFE5D8E0DEBFCDBF21
S11300600E9436000C945E000C9400008FEF8ABB53
S113007083E50E944200CFEF8C2F0E9459008BBB76
S1130080C150FACF8D3419F0833551F0089587B3F8
S1130090806B87BB87B38F7B87BB80E58DB9089561
S11300A087B38F7D87BB87B3806487BB80E48DB9BA
S11300B008958FB9779BFECF8FB10895F894FFCF41
S9030000FC
