S012000043616C63756C61746F722E7372656308
S11300000C942A000C943F000C943F000C943F0085
S11300100C943F000C943F000C943F000C943F0060
S11300200C943F000C943F000C943F000C943F0050
S11300300C943F000C943F000C943F000C943F0040
S11300400C943F000C943F000C943F000C943F0030
S11300500C943F0011241FBECFE5D8E0DEBFCDBF16
S113006010E0A0E6B0E0E0E9FAE002C005900D92ED
S1130070A03CB107D9F70E9456010C9446050C9494
S1130080000081B3807F81BB81B3806F81BB82B369
S1130090806F82BB82B38F6082BB0895A0E043C0AF
S11300A082B3806F82BB22B36A2F70E0FB01EE0F34
S11300B0FF1FE059FF4F81E090E0008002C0880FED
S11300C0991F0A94E2F78095822382BB20E028C01E
S11300D080B3422F50E0FA01EE0FFF1FE858FF4FA4
S11300E0308190E0032E02C0959587950A94E2F73B
S11300F080FD15C080B390E0032E02C095958795CE
S11301000A94E2F780FFF6CF440F551F440F551FA2
S1130110405A5F4FFA01E60FF71F808108952F5F61
S11301202430B0F2AF5FA43008F4BACF8FE308955F
S113013088B3886088BB00C088B3877F88BB00C051
S113014008951ABA88B38D7F88BB88B3846088BB4E
S11301500E9498008FEF8ABB0895CF93C82F0E9406
S1130160A10088B38D7F88BB88B38B7F88BBCBBB52
S11301700E949800CF91089581E00E94AD000895F7
S113018087B38E6087BB88B3817F88BB8FEF8ABBC0
S11301908FE097E20197F1F700C0000088E30E9426
S11301A0AD0086E00E94AD0080E80E94AD008DE0C5
S11301B00E94AD000895CF93C82F0E94A10088B378
S11301C0826088BB88B38B7F88BBCBBB0E949800BE
S11301D0CF910895811107C0603168F480E8860FDB
S11301E00E94AD000895813031F4603120F480EC38
S11301F0860F0E94AD000895EF92FF921F93CF9354
S1130200DF937C01C0E0D0E018C011E01C0F0E9415
S1130210DB00DF5F103129F460E081E00E94EA0036
S11302200BC0CF51C23040F481E00E94AD0060E0C9
S113023080E00E94EA0010E0C12FF701ED0FF11DEC
S113024080818111E2CFDF91CF911F91FF90EF90D8
S113025008950F931F93CF93DF93CDB7DEB72797FE
S11302600FB6F894DEBF0FBECDBF9F938F9380E887
S113027090E09F938F938E010F5F1F4F1F930F93F7
S11302800E945C02C8010E94FC000F900F900F9026
S11302900F900F900F9027960FB6F894DEBF0FBE05
S11302A0CDBFDF91CF911F910F9108950E94C0009F
S11302B00E9441008FE493EC0197F1F700C0000025
S11302C08FE890E00E94FC009FE32DE083E09150D2
S11302D020408040E1F700C000000E94BC0080EA9A
S11302E090E00E94FC009FE72AE186E091502040C4
S11302F08040E1F700C000000E94BC0080EB90E069
S11303000E94FC009FE72AE186E091502040804053
S1130310E1F700C000000E94BC00E12CF12C00E0D9
S113032010E0D0E00E944E00C82F8F33D9F30E9412
S1130330DB00CB3239F0CD3239F0CA3239F0CF326A
S113034041F406C0DC2F05C0DC2F03C0DC2F01C044
S1130350DC2F90ED9C0F9A3098F4D11111C02C2F02
S113036030E020533109020F131F9801220F331F6D
S1130370000F111F000F111F000F111F020F131F79
S11303809A3090F4DD2381F08C2F90E0C0978E0D8D
S11303909F1D7C01EE0CFF1C880F991F880F991F6D
S11303A0880F991FE80EF91ECD3309F0BBCFDB325D
S11303B049F018F4DA3211F144C0DD3289F0DF3249
S11303C081F13FC02AE030E0C801B9010E94340243
S11303D08B01C701B9010E943402060F171F33C0F5
S11303E02AE030E0C801B9010E9434028B01C70140
S11303F0B9010E943402061B170B25C02AE030E025
S1130400C801B9010E943402FB01C701B9010E946D
S11304103402E69F8001E79F100DF69F100D112412
S113042012C02AE030E0C801B9010E943402FB0185
S1130430C701B9010E943402CF010E9434028B012A
S113044002C000E010E060E081E00E94EA00C80120
S11304500E94290103C00E944E00C82FC034D9F75E
S113046081E00E94AD0059CF97FB072E16F400944B
S113047007D077FD09D00E94480207FC05D03EF45E
S1130480909581959F4F0895709561957F4F08953C
S1130490AA1BBB1B51E107C0AA1FBB1FA617B707A6
S11304A010F0A61BB70B881F991F5A95A9F78095C2
S11304B09095BC01CD010895AEE0B0E0E2E6F2E033
S11304C00C941D050D891E8986E08C831A8309838B
S11304D08FEF9FE79E838D83AE01475E5F4F6F89E9
S11304E0788DCE0101960E947E02EF81F885E00F9F
S11304F0F11F10822E96E4E00C943905ABE0B0E0D5
S1130500E4E8F2E00C940F056C017B018A01FC0124
S113051017821682838181FFCCC1CE0101963C01F2
S1130520F6019381F70193FD859193FF81917F01FA
S1130530882309F4BAC1853239F493FD859193FF78
S113054081917F01853229F4B60190E00E947504FF
S1130550E7CF912C212C312CFFE1F315D8F08B320D
S113056079F038F4803279F08332A1F4232D2061BC
S11305701DC08D3261F0803369F4232D216016C0D3
S1130580832D8260382EE32DE4603E2E2AC0F32DA5
S1130590F8601DC037FC2DC020ED280F2A3040F034
S11305A08E32B9F436FC81C1232D2064322E19C059
S11305B036FE06C08AE0989E200D1124922E11C0AA
S11305C0EAE02E9E200D1124222EF32DF0623F2E00
S11305D008C08C3621F4832D8068382E02C08836FA
S11305E041F4F70193FD859193FF81917F0181117E
S11305F0B3CF982F9F7D9554933028F40C5F1F4FF1
S11306009FE399830DC0833631F0833771F08335CE
S113061009F059C021C0F801808189830E5F1F4F02
S113062088248394912C530113C02801F2E04F0EC7
S1130630511CF801A080B18036FE03C0692D70E022
S113064002C06FEF7FEFC5010E946A044C01820172
S1130650F32DFF773F2E16C0280122E0420E511CD5
S1130660F801A080B18036FE03C0692D70E002C09D
S11306706FEF7FEFC5010E945F044C01F32DF0681A
S11306803F2E820133FC1BC0822D90E08816990610
S1130690B0F4B60180E290E00E9475042A94F4CF8D
S11306A0F50137FC859137FE81915F01B60190E039
S11306B00E94750421102A9421E0821A9108811461
S11306C0910471F7E8C0843611F0893641F5F801D8
S11306D037FE07C060817181828193810C5F1F4F57
S11306E008C060817181072E000C880B990B0E5F86
S11306F01F4FF32DFF763F2E97FF09C090958095ED
S1130700709561957F4F8F4F9F4FF0683F2E2AE081
S113071030E0A3010E94B104882E861845C08537B5
S113072031F4232D2F7EB22E2AE030E025C0932D04
S1130730997FB92E8F36C1F018F4883579F0B5C099
S1130740803719F0883721F0B0C0E92FE061BE2E60
S1130750B4FE0DC0FB2DF460BF2E09C034FE0AC0E8
S1130760292F2660B22E06C028E030E005C020E123
S113077030E002C020E132E0F801B7FE07C060813A
S11307807181828193810C5F1F4F06C060817181EA
S113079080E090E00E5F1F4FA3010E94B104882EF9
S11307A08618FB2DFF773F2E36FE0DC0232D2E7F9E
S11307B0A22E891458F434FE0BC032FC09C0832DD8
S11307C08E7EA82E05C0B82CA32C03C0B82C01C063
S11307D0B92CA4FE0FC0FE01E80DF11D8081803309
S11307E021F49A2D997EA92E09C0A2FE06C0B394C5
S11307F0B39404C08A2D867809F0B394A3FC11C085
S1130800A0FE06C0B21488F4280C922C9B180EC0CB
S1130810B21460F4B60180E290E00E947504B394CF
S1130820F7CFB21418F42B1802C0982C212CA4FE74
S113083010C0B60180E390E00E947504A2FE17C0C8
S1130840A1FC03C088E790E002C088E590E0B6010F
S11308500CC08A2D867859F0A1FE02C08BE201C03B
S113086080E2A7FC8DE2B60190E00E947504891431
S113087038F4B60180E390E00E9475049A94F7CFAF
S11308808A94F301E80DF11D8081B60190E00E9485
S113089075048110F5CF222009F442CEB60180E21E
S11308A090E00E9475042A94F6CFF6018681978120
S11308B002C08FEF9FEF2B96E2E10C942B05FC0115
S11308C00590615070400110D8F7809590958E0F77
S11308D09F1F0895FC016150704001900110D8F7EA
S11308E0809590958E0F9F1F08950F931F93CF931C
S11308F0DF93FB01238121FD03C08FEF9FEF2CC009
S113090022FF16C04681578124813581421753073F
S113091044F4A081B1819D012F5F3F4F3183208337
S11309208C93268137812F5F3F4F3783268314C0F2
S11309308B01EC01FB010084F185E02D0995892BE5
S1130940E1F6D80116968D919C911797019617960A
S11309509C938E931697CE01DF91CF911F910F91A7
S11309600895FA01AA27283051F1203181F1E89441
S11309706F936E7F6E5F7F4F8F4F9F4FAF4FB1E08E
S11309803ED0B4E03CD0670F781F891F9A1FA11D89
S1130990680F791F8A1F911DA11D6A0F711D811D8A
S11309A0911DA11D20D009F468943F912AE0269F4F
S11309B011243019305D3193DEF6CF010895462FAE
S11309C04770405D4193B3E00FD0C9F7F6CF462F8F
S11309D04F70405D4A3318F0495D31FD40524193F8
S11309E002D0A9F7EACFB4E0A695979587957795B5
S11309F06795BA95C9F700976105710508959B013C
S1130A00AC010A2E06945795479537952795BA95C4
S1130A10C9F7620F731F841F951FA01D08952F929D
S1130A203F924F925F926F927F928F929F92AF927A
S1130A30BF92CF92DF92EF92FF920F931F93CF93C7
S1130A40DF93CDB7DEB7CA1BDB0B0FB6F894DEBF5E
S1130A500FBECDBF09942A88398848885F846E8484
S1130A607D848C849B84AA84B984C884DF80EE80CE
S1130A70FD800C811B81AA81B981CE0FD11D0FB6D7
S1130A80F894DEBF0FBECDBFED010895F894FFCFFB
S1130A903738392F3435362A3132332D40303D2B17
S1130AA00400050006000700000001000200030026
S1130AB02564002D00257325642E25303464004CF4
S1130AC06561726E5F496E5F44657074682E2E00B6
S1130AD020456E672E546168612048616D6564002D
S1130AE0203D3D43616C63756C61746F723D3D00E4
S9030000FC
