:100000000C942A000C9447000C9447000C94470071
:100010000C9447000C9447000C9447000C94470044
:100020000C9447000C9447000C945D000C9447001E
:100030000C9447000C9447000C9447000C94470024
:100040000C9447000C9447000C9447000C94470014
:100050000C94470011241FBECFE5D8E0DEBFCDBF12
:1000600010E0A0E6B0E0E6E3F1E002C005900D92FA
:10007000A436B107D9F720E0A4E6B0E001C01D9294
:10008000A636B207E1F70E9449000C9499000C943F
:1000900000007894BB9A83B7886083BF83B78F7B57
:1000A00083BF83B7836183BF89B7826089BF809133
:1000B0006000909161008CBFFFCF1F920F920FB62E
:1000C0000F9211248F939F93EF93FF93809164007D
:1000D00090916500009719F0019799F021C081E097
:1000E00090E09093650080936400E0916400F0914B
:1000F0006500EE0FFF1FE05AFF4F808191818CBF9A
:100100000FC01092650010926400E0916400F091BD
:100110006500EE0FFF1FE05AFF4F808191818CBF79
:10012000FF91EF919F918F910F900FBE0F901F90B5
:060130001895F894FFCFC2
:040136003200C800CB
:00000001FF
