:100000000C942A000C943F000C943F000C943F0089
:100010000C943F000C943F000C943F000C943F0064
:100020000C943F000C943F000C943F000C943F0054
:100030000C943F000C943F000C943F000C943F0044
:100040000C943F000C943F000C943F000C943F0034
:100050000C943F0011241FBECFE5D8E0DEBFCDBF1A
:1000600010E0A0E6B0E0E8E7F3E002C005900D92F2
:10007000A037B107D9F70E94A3010C94BA010C94E0
:10008000000081B3807F81BB81B3806F81BB8FEF24
:1000900082BB08950F931F93CF93DF9340E050E00E
:1000A0009DC032B3E0E6F0E081E090E08C0100809A
:1000B00002C0000F111F0A94E2F7EC01028002C097
:1000C000CC0FDD1F0A94E2F7DC01048002C0AA0F06
:1000D000BB1F0A94E2F7BC01068002C0660F771FBF
:1000E0000A94E2F72C2F202B2A2B262B232B22BB22
:1000F00022B3FA01EE0FFF1FE05AFF4F008002C04B
:10010000880F991F0A94E2F78095822382BB60E0F2
:1001100070E05EC080B3FB01EE0FFF1FE859FF4F98
:10012000208190E0022E02C0959587950A94E2F70F
:1001300080FD4CC080B390E0022E02C0959587955B
:100140000A94E2F780FFF6CF41305105C9F024F45C
:100150004115510541F03AC042305105F1F04330AC
:10016000510541F133C061157105F1F1613071053F
:10017000E9F162307105E1F16330710539F53AC09A
:1001800061157105C9F161307105C1F16230710508
:10019000B9F163307105D1F435C061157105A1F174
:1001A0006130710599F16230710591F1633071052B
:1001B00069F430C06115710579F16130710571F133
:1001C0006230710569F16330710561F16F5F7F4FD6
:1001D000643071050CF49ECF4F5F5F4F4430510582
:1001E0000CF45FCF81E41FC087E31DC084E31BC014
:1001F00081E319C08FE317C088E315C085E313C0FE
:1002000082E311C080E30FC089E30DC086E30BC019
:1002100083E309C08DE307C08FE205C08AE203C013
:100220008DE201C08BE2DF91CF911F910F91089574
:1002300088B3886088BB83ED90E30197F1F700C035
:10024000000088B3877F88BB08958AB38F708ABB0C
:1002500088B3846088BB88B38D7F88BB0E941801F7
:100260008AB3806F8ABB88B38B7F88BB0895CF9396
:10027000C82F0E9425018BB38F709C2F907F892BF4
:100280008BBB88B3897F88BB0E9418012BB330E1F8
:10029000C39FC0011124922F9F70892B8BBB88B301
:1002A000897F88BB0E941801CF91089581E00E9448
:1002B0003701089587E893E10197F1F700C0000046
:1002C00087B38E6087BB88B3817F88BB8FEF8ABB83
:1002D00085EA9EE00197F1F700C000000E945601F8
:1002E00082E00E94370188E20E94370186E00E9486
:1002F000370180E80E9437018FE00E94370108959E
:10030000CF93C82F8BB38F709C2F907F892B8BBB83
:1003100088B3826088BB88B38B7F88BB0E9418013A
:100320002BB330E1C39FC0011124922F9F70892B02
:100330008BBB88B3826088BB88B38B7F88BB0E94ED
:100340001801CF9108950E945A010E94410083ED47
:1003500090E30197F1F700C000000E944A008F333C
:1003600019F08134D1F303C00E945601F6CF0E94E8
:080370008001F3CFF894FFCFE8
:100378000400050006000700000001000200030059
:00000001FF
