:100000000C942A000C943F000C943F000C943F0089
:100010000C943F000C943F000C943F000C943F0064
:100020000C943F000C943F000C943F000C943F0054
:100030000C943F000C943F000C943F000C943F0044
:100040000C943F000C943F000C943F000C943F0034
:100050000C943F0011241FBECFE5D8E0DEBFCDBF1A
:1000600010E0A0E6B0E0ECEDF3E002C005900D92E8
:10007000A03AB107D9F70E948C010C94EC010C94C2
:10008000000080EC87B987E886B9089597B18F7131
:10009000982B97B986B1806486B9349BFECF86B120
:1000A000806186B924B185B190E0982F8827822B92
:1000B000089580E0A0C0982F969596959695282F44
:1000C0002770913061F138F0923009F44CC09330D0
:1000D00009F46DC08FC0E82FF0E0EE0FFF1FE05A6B
:1000E000FF4F9081913069F49AB341E050E0BA013A
:1000F00002C0660F771F2A95E2F79B01292B2ABBC6
:1001000079C09AB341E050E0BA0102C0660F771F90
:100110002A95E2F79B01209529232ABB6BC0E82F83
:10012000F0E0EE0FFF1FE05AFF4F9081913069F42D
:1001300097B341E050E0BA0102C0660F771F2A95DD
:10014000E2F79B01292B27BB55C097B341E050E054
:10015000BA0102C0660F771F2A95E2F79B0120952E
:10016000292327BB47C0E82FF0E0EE0FFF1FE05A1E
:10017000FF4F9081913069F494B341E050E0BA01AF
:1001800002C0660F771F2A95E2F79B01292B24BB3B
:1001900031C094B341E050E0BA0102C0660F771F4E
:1001A0002A95E2F79B012095292324BB23C0E82F41
:1001B000F0E0EE0FFF1FE05AFF4F9081913069F49D
:1001C00091B341E050E0BA0102C0660F771F2A9553
:1001D000E2F79B01292B21BB0DC091B341E050E018
:1001E000BA0102C0660F771F2A95E2F79B0120959E
:1001F000292321BB8F5F803208F45DCF089588B337
:10020000886088BB00C088B3877F88BB00C0089522
:100210001ABA88B38D7F88BB88B3846088BB0E947C
:10022000FF008FEF8ABB0895CF93C82F0E9408016B
:1002300088B38D7F88BB88B38B7F88BBCBBB0E9484
:10024000FF00CF91089587B38E6087BB88B3817F0D
:1002500088BB8FEF8ABB8FE097E20197F1F700C070
:10026000000088E30E94140186E00E94140180E8E7
:100270000E9414018DE00E9414010895CF93C82FAD
:100280000E94080188B3826088BB88B38B7F88BBDB
:10029000CBBB0E94FF00CF910895811107C0603150
:1002A00068F480E8860F0E9414010895813031F4CB
:1002B000603120F480EC860F0E9414010895EF92C3
:1002C000FF921F93CF93DF937C01C0E0D0E018C072
:1002D00011E01C0F0E943E01DF5F103129F460E045
:1002E00081E00E944D010BC0CF51C23040F481E04B
:1002F0000E94140160E080E00E944D0110E0C12FD7
:10030000F701ED0FF11D80818111E2CFDF91CF91D7
:100310001F91FF90EF900895CF93DF93CDB7DEB795
:1003200064970FB6F894DEBF0FBECDBF0E94590090
:100330000E9423010E94410081E00E9446004AE0A1
:10034000BE016F5F7F4F96958795969587950E9422
:10035000B701CE0101960E945F018FE493EC0197F3
:10036000F1F700C0000081E00E941401E5CFBB2737
:100370004A3031F4992322F4BDE2909581959F4F44
:100380000C94C301BB27FB015527AA27880F991F8F
:10039000AA1FA41710F0A41B83955051B9F7A05DB4
:1003A000AA3308F0A95DA193009779F7B111B19331
:1003B0001192CB010C94DC01DC01FC01672F7191DF
:1003C0007723E1F7329704C07C916D93708362913B
:0C03D000AE17BF07C8F30895F894FFCFE4
:1003DC000101010101010101010101010101010101
:1003EC0001010101010101010101010101010101F1
:1003FC0001010000010101010101010101010101E3
:10040C0001010101010101010000000001010000D6
:00000001FF
