S01200004932435F4D61737465722E7372656389
S11300000C942A000C9434000C9434000C943400A6
S11300100C9434000C9434000C9434000C9434008C
S11300200C9434000C9434000C9434000C9434007C
S11300300C9434000C9434000C9434000C9434006C
S11300400C9434000C9434000C9434000C9434005C
S11300500C94340011241FBECFE5D8E0DEBFCDBF21
S11300600E9468000C94A8000C9400009B01AC0151
S113007060E074E284EF90E00E948600DA01C90136
S11300804097A109B109B695A7959795879580B929
S113009011B8089584EA86BF06B607FEFDCF81B184
S11300A08830E9F7089583B984E886BF06B607FE69
S11300B0FDCF089520E4829FC0011124846886BF87
S11300C006B607FEFDCF83B1089584E986BF08957F
S11300D08FEF8ABB68E470E080E090E00E94360015
S11300E02FEF84E39CE0215080409040E1F700C072
S11300F000000E944A0081ED0E94530080E00E94AB
S11301005A00C82F0E946500CBBBEACFA1E21A2E89
S1130110AA1BBB1BFD010DC0AA1FBB1FEE1FFF1FA7
S1130120A217B307E407F50720F0A21BB30BE40BF7
S1130130F50B661F771F881F991F1A9469F760953E
S11301407095809590959B01AC01BD01CF010895F8
S1070150F894FFCF4D
S9030000FC
