:100000000C942A000C943F000C943F000C943F0089
:100010000C943F000C943F000C943F000C943F0064
:100020000C943F000C943F000C943F000C943F0054
:100030000C943F000C943F000C943F000C943F0044
:100040000C943F000C943F000C943F000C943F0034
:100050000C943F0011241FBECFE5D8E0DEBFCDBF1A
:1000600010E0A0E6B0E0E4EFF2E002C005900D92EF
:10007000A03AB107D9F70E9469010C9478010C9459
:100080000000982F9695969596958770913021F15E
:1000900030F09230F1F1933009F458C00895613096
:1000A00069F44BB321E030E0B90102C0660F771F5D
:1000B0008A95E2F7CB01842B8BBB08954BB321E0EB
:1000C00030E0B90102C0660F771F8A95E2F7CB01D5
:1000D000809584238BBB0895613069F448B321E097
:1000E00030E0B90102C0660F771F8A95E2F7CB01B5
:1000F000842B88BB089548B321E030E0B90102C0E9
:10010000660F771F8A95E2F7CB018095842388BB21
:100110000895613069F445B321E030E0B90102C0CF
:10012000660F771F8A95E2F7CB01842B85BB089574
:1001300045B321E030E0B90102C0660F771F8A9510
:10014000E2F7CB018095842385BB0895613069F483
:1001500042B321E030E0B90102C0660F771F8A95F3
:10016000E2F7CB01842B82BB089542B321E030E05B
:10017000B90102C0660F771F8A95E2F7CB0180951F
:10018000842382BB089580E0A0C0982F9695969511
:100190009695282F2770913061F138F0923009F44C
:1001A0004CC0933009F46DC08FC0E82FF0E0EE0F23
:1001B000FF1FE05AFF4F9081913069F49AB341E0FC
:1001C00050E0BA0102C0660F771F2A95E2F79B0143
:1001D000292B2ABB79C09AB341E050E0BA0102C092
:1001E000660F771F2A95E2F79B01209529232ABBEA
:1001F0006BC0E82FF0E0EE0FFF1FE05AFF4F908139
:10020000913069F497B341E050E0BA0102C0660F43
:10021000771F2A95E2F79B01292B27BB55C097B37F
:1002200041E050E0BA0102C0660F771F2A95E2F75D
:100230009B012095292327BB47C0E82FF0E0EE0F54
:10024000FF1FE05AFF4F9081913069F494B341E071
:1002500050E0BA0102C0660F771F2A95E2F79B01B2
:10026000292B24BB31C094B341E050E0BA0102C055
:10027000660F771F2A95E2F79B012095292324BB5F
:1002800023C0E82FF0E0EE0FFF1FE05AFF4F9081F0
:10029000913069F491B341E050E0BA0102C0660FB9
:1002A000771F2A95E2F79B01292B21BB0DC091B343
:1002B00041E050E0BA0102C0660F771F2A95E2F7CD
:1002C0009B012095292321BB8F5F803208F45DCFED
:1002D00008950E94C30061E082E00E94410061E055
:1002E00083E00E94410061E08BE10E944100FFCF6A
:0402F000F894FFCFB0
:1002F40001010101010101010101010101010101EA
:1003040001010101010101010101010101010101D9
:1003140001010101010101010101010101010101C9
:1003240001010101010101010101010101010101B9
:00000001FF
