:100000000C942A000C943F000C943F000C943F0089
:100010000C943F000C943F000C943F000C943F0064
:100020000C943F000C943F000C943F000C943F0054
:100030000C943F000C943F000C943F000C943F0044
:100040000C943F000C943F000C943F000C943F0034
:100050000C943F0011241FBECFE5D8E0DEBFCDBF1A
:1000600010E0A0E6B0E0E4EBF5E002C005900D92F0
:10007000A83BB107D9F70E94CD020C94D8020C948A
:100080000000982F9770869586958695813021F18E
:1000900030F08230F1F1833009F458C008956130B6
:1000A00069F44BB321E030E0B90102C0660F771F5D
:1000B0009A95E2F7CB01842B8BBB08954BB321E0DB
:1000C00030E0B90102C0660F771F9A95E2F7CB01C5
:1000D000809584238BBB0895613069F448B321E097
:1000E00030E0B90102C0660F771F9A95E2F7CB01A5
:1000F000842B88BB089548B321E030E0B90102C0E9
:10010000660F771F9A95E2F7CB018095842388BB11
:100110000895613069F445B321E030E0B90102C0CF
:10012000660F771F9A95E2F7CB01842B85BB089564
:1001300045B321E030E0B90102C0660F771F9A9500
:10014000E2F7CB018095842385BB0895613069F483
:1001500042B321E030E0B90102C0660F771F9A95E3
:10016000E2F7CB01842B82BB089542B321E030E05B
:10017000B90102C0660F771F9A95E2F7CB0180950F
:10018000842382BB0895282F2770869586958695AF
:10019000813079F028F08230A9F08330E1F024C07A
:1001A00089B390E002C0959587952A95E2F7817012
:1001B000089586B390E002C0959587952A95E2F759
:1001C0008170089583B390E002C0959587952A9534
:1001D000E2F78170089580B390E002C0959587950D
:1001E0002A95E2F78170089580E00895813041F00A
:1001F00028F0823039F0833039F008956BBB0895D0
:1002000068BB089565BB089562BB0895813041F0D5
:1002100028F0823039F0833039F008C08BB308956C
:1002200088B3089585B3089582B3089580E0089552
:10023000E0E6F0E080E041E050E0282F2770982FC2
:10024000969596959695913009F130F09230C1F1DE
:10025000933009F44FC067C09081913059F49AB33C
:10026000BA0102C0660F771F2A95E2F79B01292B7E
:100270002ABB59C03AB3BA0102C0660F771F2A954C
:10028000E2F7962F909593239ABB4DC090819130C1
:1002900059F497B3BA0102C0660F771F2A95E2F7A7
:1002A0009B01292B27BB3FC037B3BA0102C0660FA1
:1002B000771F2A95E2F7962F9095932397BB33C02B
:1002C0009081913059F494B3BA0102C0660F771F40
:1002D0002A95E2F79B01292B24BB25C034B3BA0130
:1002E00002C0660F771F2A95E2F7962F9095932309
:1002F00094BB19C09081913059F491B3BA0102C0F6
:10030000660F771F2A95E2F79B01292B21BB0BC0B3
:1003100031B3BA0102C0660F771F2A95E2F7962F14
:100320009095932391BB8F5F3296803209F085CFF1
:1003300008954F925F926F927F928F929F92AF92A9
:10034000BF92CF92DF92EF92FF920F931F93CF93C2
:10035000DF9304EB10E00F2EF0EB8F2EF0E09F2EDA
:10036000F02D0F2EF8EBCF2EF0E0DF2EF02D7401E4
:10037000E80161E089910E94410061E0F70181910B
:100380007F010E944100CC15DD0599F7C12CD12CCD
:100390003601580160E0F80180810E944100E401CB
:1003A000412C512C720189910E94C300811114C00B
:1003B000E201C055DF4F88810E94C3008823D9F332
:1003C000C301880F991F880F991F80569F4FFC010A
:1003D000EE0DFF1D808116C0FFEF4F1A5F0A84E00B
:1003E00048165104F9F60F5F1F4F61E0F501808157
:1003F0000E944100FFEFCF1ADF0A84E0C816D10443
:1004000039F680E0DF91CF911F910F91FF90EF902F
:10041000DF90CF90BF90AF909F908F907F906F9024
:100420005F904F900895CF93C82F60E089E00E94BD
:10043000410080E00E9406018F709C2F907F682F02
:10044000692B80E00E94F60060E08BE00E94410092
:100450008FE891E00197F1F700C0000061E08BE0C8
:100460000E9441008FE19EE40197F1F700C0000077
:1004700080E00E9406018F7090E1C99F90011124D5
:10048000682F622B80E00E94F60060E08BE00E9403
:1004900041008FE891E00197F1F700C0000061E0B2
:1004A0008BE00E9441008FE39FE10197F1F700C0CC
:1004B0000000CF91089560E08AE00E94410061E071
:1004C0008BE00E9441002FEF89EF90E021508040A7
:1004D0009040E1F700C0000083E30E9413028FE820
:1004E00091E00197F1F700C0000082E30E9413023F
:1004F00088E20E94130286E00E9413028CE00E94B0
:10050000130281E00E9413020895CF93C82F61E087
:1005100089E00E94410080E00E9406018F709C2FBC
:10052000907F682F692B80E00E94F60060E08BE0EE
:100530000E9441008FE891E00197F1F700C00000B0
:1005400061E08BE00E9441008FE19EE40197F1F7AA
:1005500000C0000080E00E9406018F7090E1C99FFA
:1005600090011124682F622B80E00E94F60060E069
:100570008BE00E9441008FE891E00197F1F700C005
:10058000000061E08BE00E9441008FE39FE1019752
:10059000F1F700C00000CF9108950E9418010E9459
:1005A0005B020E9499018823E1F30E948502F9CF42
:0405B000F894FFCFED
:1005B4000101010101010101010101010101010127
:1005C4000101010101010101010101010101010117
:1005D4000101000001010101010101010101010109
:1005E40001010101010101010000000001010000FD
:1005F4003738392F3435362A3132332D43303D2BB9
:080604001C1D111F1819101B29
:00000001FF
