:100000000C942A000C9434000C9434000C943400AA
:100010000C9434000C9434000C9434000C94340090
:100020000C9434000C9434000C9434000C94340080
:100030000C9434000C9434000C9434000C94340070
:100040000C9434000C9434000C9434000C94340060
:100050000C94340011241FBECFE5D8E0DEBFCDBF25
:100060000E9436000C945C000C94000081B38E7FDB
:1000700081BB82B38E7F82BB81B3806181BB81B340
:10008000806281BB809BFECF82B3806182BB82B3E2
:10009000806282BB2FEF89E698E12150804090403A
:1000A000E1F700C0000082B38F7E82BB82B38F7DF8
:0C00B00082BB9099FECFE6CFF894FFCF02
:00000001FF
