:100000000C942A000C9434000C9434000C943400AA
:100010000C9434000C9434000C9434000C94340090
:100020000C9434000C9434000C9434000C94340080
:100030000C9434000C9434000C9434000C94340070
:100040000C9434000C9434000C9434000C94340060
:100050000C94340011241FBECFE5D8E0DEBFCDBF25
:100060000E9436000C9469000C9400008FEF8ABB4C
:1000700020E015C03BB381E090E0022E02C0880F63
:10008000991F0A94E2F7832B8BBB3FEF82E597E041
:10009000315080409040E1F700C000002F5F2830D1
:1000A00048F337E02BB381E090E0032E02C0880FC5
:1000B000991F0A94E2F7809582238BBB2FEF82E58C
:1000C00097E0215080409040E1F700C0000031509F
:0600D000E9CFF894FFCF18
:00000001FF
