S01100004932435F536C6176652E73726563FB
S11300000C942A000C9434000C9434000C943400A6
S11300100C9434000C9434000C9434000C9434008C
S11300200C9434000C9434000C9434000C9434007C
S11300300C9434000C9434000C9434000C9434006C
S11300400C9434000C9434000C9434000C9434005C
S11300500C94340011241FBECFE5D8E0DEBFCDBF21
S11300600E9452000C945C000C94000082B9089524
S113007020E4829FC0011124846886BF06B607FE6F
S1130080FDCF01C081B181B18036E1F784EC86BF38
S113009006B607FEFDCF01C081B181B18038E1F71A
S11300A083B108958FEF8ABB80ED0E94360081E012
S10F00B00E9438008BBBFBCFF894FFCFFC
S9030000FC
