S0240000556E6974375F4C6573736F6E315F53656374696F6E5F5461736B5F322E737265636E
S11300000C942A000C9434000C9434000C943400A6
S11300100C9434000C9434000C9434000C9434008C
S11300200C9434000C9434000C9434000C9434007C
S11300300C9434000C9434000C9434000C9434006C
S11300400C9434000C9434000C9434000C9434005C
S11300500C94340011241FBECFE5D8E0DEBFCDBF21
S11300600E9436000C945B000C9400008FEF8ABB56
S113007081B38E7F81BB80E0809B13C0883068F49D
S11300809BB321E030E0082E02C0220F331F0A94F4
S1130090E2F7292B2BBB8F5F02C01BBA80E080994B
S11300A0FECF2FEF30E792E0215030409040E1F74F
S10D00B000C00000E1CFF894FFCF78
S9030000FC
