:100000000C942A000C9434000C9434000C943400AA
:100010000C9434000C9434000C9434000C94340090
:100020000C9434000C9434000C9434000C94340080
:100030000C9434000C9434000C9434000C94340070
:100040000C9434000C9434000C9434000C94340060
:100050000C94340011241FBECFE5D8E0DEBFCDBF25
:100060000E9443000C9485000C94000098B39F7E7E
:1000700098BB8FB9779BFECF6FB9779BFECF88B3C4
:10008000806188BB089581E00E946F0088B38F7EF5
:1000900088BB6FEF89E00E9436006FEF8AE00E9414
:1000A000360067EF8BE00E94360061E08CE00E9432
:1000B000360060E0C1E007C0D1E0D60F8C2F0E946F
:1000C0003600CF5F6D2FC930B8F32FE38DE093E09A
:1000D000215080409040E1F700C00000EBCF882322
:1000E00059F0813089F487B3806B87BB87B38F7BEE
:1000F00087BB80E58DB9089587B38F7D87BB87B3B4
:0E010000806487BB80E48DB90895F894FFCF2A
:00000001FF
